{
  "contractName": "Kryptobird",
  "abi": [
    {
      "inputs": [],
      "stateMutability": "nonpayable",
      "type": "constructor"
    },
    {
      "anonymous": false,
      "inputs": [
        {
          "indexed": true,
          "internalType": "address",
          "name": "from",
          "type": "address"
        },
        {
          "indexed": true,
          "internalType": "address",
          "name": "to",
          "type": "address"
        },
        {
          "indexed": true,
          "internalType": "uint256",
          "name": "tokenId",
          "type": "uint256"
        }
      ],
      "name": "Transfer",
      "type": "event"
    },
    {
      "inputs": [
        {
          "internalType": "uint256",
          "name": "",
          "type": "uint256"
        }
      ],
      "name": "KryptoBirdz",
      "outputs": [
        {
          "internalType": "string",
          "name": "",
          "type": "string"
        }
      ],
      "stateMutability": "view",
      "type": "function"
    },
    {
      "inputs": [],
      "name": "name",
      "outputs": [
        {
          "internalType": "string",
          "name": "",
          "type": "string"
        }
      ],
      "stateMutability": "view",
      "type": "function"
    },
    {
      "inputs": [],
      "name": "symbol",
      "outputs": [
        {
          "internalType": "string",
          "name": "",
          "type": "string"
        }
      ],
      "stateMutability": "view",
      "type": "function"
    },
    {
      "inputs": [
        {
          "internalType": "string",
          "name": "_KryptoBird",
          "type": "string"
        }
      ],
      "name": "mint",
      "outputs": [],
      "stateMutability": "nonpayable",
      "type": "function"
    }
  ],
  "bytecode": "0x608060405234801561001057600080fd5b50604080518082018252600a81526912dc9e5c1d1bd09a5c9960b21b60208083019182528351808501909452600684526525a124a9222d60d11b9084015281519192918391839161006391600091610081565b508051610077906001906020840190610081565b5050505050610155565b82805461008d9061011a565b90600052602060002090601f0160209004810192826100af57600085556100f5565b82601f106100c857805160ff19168380011785556100f5565b828001600101855582156100f5579182015b828111156100f55782518255916020019190600101906100da565b50610101929150610105565b5090565b5b808211156101015760008155600101610106565b600181811c9082168061012e57607f821691505b6020821081141561014f57634e487b7160e01b600052602260045260246000fd5b50919050565b61062a806101646000396000f3fe608060405234801561001057600080fd5b506004361061004c5760003560e01c806306fdde031461005157806395d89b411461006f578063a3a1ff5814610077578063d85d3d271461008a575b600080fd5b61005961009f565b604051610066919061043f565b60405180910390f35b610059610131565b610059610085366004610494565b610140565b61009d6100983660046104c3565b6101ec565b005b6060600080546100ae90610574565b80601f01602080910402602001604051908101604052809291908181526020018280546100da90610574565b80156101275780601f106100fc57610100808354040283529160200191610127565b820191906000526020600020905b81548152906001019060200180831161010a57829003601f168201915b5050505050905090565b6060600180546100ae90610574565b6004818154811061015057600080fd5b90600052602060002001600091509050805461016b90610574565b80601f016020809104026020016040519081016040528092919081815260200182805461019790610574565b80156101e45780601f106101b9576101008083540402835291602001916101e4565b820191906000526020600020905b8154815290600101906020018083116101c757829003601f168201915b505050505081565b60048054600181018255600091909152815161022f917f8a35acfbc15ff81a39ae7d344fd709f28e8600b4aa8c65c6b64bfe7fe36bd19b019060208401906103a6565b50600454600090610242906001906105c5565b905061024e3382610252565b5050565b6001600160a01b0382166102b95760405162461bcd60e51b815260206004820152602360248201527f4552433732313a206d696e74696e6720746f20746865207a65726f206164647260448201526265737360e81b60648201526084015b60405180910390fd5b6000818152600260205260409020546001600160a01b03161561031e5760405162461bcd60e51b815260206004820152601c60248201527f4552433732313a20746f6b656e20616c7265616479206d696e7465640000000060448201526064016102b0565b600081815260026020908152604080832080546001600160a01b0319166001600160a01b0387169081179091558352600390915281208054600192906103659084906105dc565b909155505060405181906001600160a01b038416906000907fddf252ad1be2c89b69c2b068fc378daa952ba7f163c4a11628f55a4df523b3ef908290a45050565b8280546103b290610574565b90600052602060002090601f0160209004810192826103d4576000855561041a565b82601f106103ed57805160ff191683800117855561041a565b8280016001018555821561041a579182015b8281111561041a5782518255916020019190600101906103ff565b5061042692915061042a565b5090565b5b80821115610426576000815560010161042b565b600060208083528351808285015260005b8181101561046c57858101830151858201604001528201610450565b8181111561047e576000604083870101525b50601f01601f1916929092016040019392505050565b6000602082840312156104a657600080fd5b5035919050565b634e487b7160e01b600052604160045260246000fd5b6000602082840312156104d557600080fd5b813567ffffffffffffffff808211156104ed57600080fd5b818401915084601f83011261050157600080fd5b813581811115610513576105136104ad565b604051601f8201601f19908116603f0116810190838211818310171561053b5761053b6104ad565b8160405282815287602084870101111561055457600080fd5b826020860160208301376000928101602001929092525095945050505050565b600181811c9082168061058857607f821691505b602082108114156105a957634e487b7160e01b600052602260045260246000fd5b50919050565b634e487b7160e01b600052601160045260246000fd5b6000828210156105d7576105d76105af565b500390565b600082198211156105ef576105ef6105af565b50019056fea26469706673582212207136891535d9e9686f22bc4396bd62a820195d3f7129a522f89aff3d6150db4e64736f6c63430008090033",
  "immutableReferences": {},
  "source": "// SPDX-License-Identifier: MIT\npragma solidity ^0.8.0;\n\nimport './ERC721Connector.sol';\n\ncontract Kryptobird is ERC721Connector {\n\n    //array to store our nfts\n    string [] public KryptoBirdz;\n    \n    function mint(string memory _KryptoBird) public {\n\n        // this is deprecated - uint _id = KryptoBirdz.push(_KryptoBird);\n\n        KryptoBirdz.push(_KryptoBird);\n        uint _id = KryptoBirdz.length - 1;\n\n        _mint(msg.sender, _id);\n    }\n\n    constructor() ERC721Connector('KryptoBird', 'KBIRDZ') {\n        \n    }\n}",
  "sourcePath": "/Users/mac/Documents/dev/study-nft/nft-marketplace-starter-kit/src/contracts/KryptoBirdz.sol",
  "compiler": {
    "name": "solc",
    "version": "0.8.9+commit.e5eed63a.Emscripten.clang"
  },
  "schemaVersion": "3.4.3",
  "updatedAt": "2021-10-11T13:16:47.668Z",
  "devdoc": {
    "kind": "dev",
    "methods": {},
    "version": 1
  },
  "userdoc": {
    "kind": "user",
    "methods": {},
    "version": 1
  }
}